{
  "transactions": [
    {
      "hash": "0x2c0302c6b206d2133caaa03cb6b7b9aac493f9d0c28e4b18bdf65cb7ca210c47",
      "transactionType": "CALL",
      "contractName": null,
      "contractAddress": "0xfa02019e4eed6a41cbbe52c5c7e6904c18633b85",
      "function": "grantManageRole(address)",
      "arguments": [
        "0x1DE0A7584B2C916f95ec3654Bd816627CDcb0782"
      ],
      "transaction": {
        "from": "0x7789884c5c88ae84775f266045b96fd6cb5c734b",
        "to": "0xfa02019e4eed6a41cbbe52c5c7e6904c18633b85",
        "gas": "0x11e5e",
        "value": "0x0",
        "input": "0x4e77d96e0000000000000000000000001de0a7584b2c916f95ec3654bd816627cdcb0782",
        "nonce": "0x13f",
        "chainId": "0xaa36a7"
      },
      "additionalContracts": [],
      "isFixedGasLimit": false
    },
    {
      "hash": "0xeecc5169cb335013cf20217e58de4b824047f386f2bc719c857c6f15db5b8e2c",
      "transactionType": "CALL",
      "contractName": null,
      "contractAddress": "0xfa02019e4eed6a41cbbe52c5c7e6904c18633b85",
      "function": "grantManageRole(address)",
      "arguments": [
        "0x9a60c99430C1BeA43b0235923469CcCF587d53Ed"
      ],
      "transaction": {
        "from": "0x7789884c5c88ae84775f266045b96fd6cb5c734b",
        "to": "0xfa02019e4eed6a41cbbe52c5c7e6904c18633b85",
        "gas": "0x11e5e",
        "value": "0x0",
        "input": "0x4e77d96e0000000000000000000000009a60c99430c1bea43b0235923469cccf587d53ed",
        "nonce": "0x140",
        "chainId": "0xaa36a7"
      },
      "additionalContracts": [],
      "isFixedGasLimit": false
    },
    {
      "hash": "0xcaeedf6374d9c779e8f031ecec89704d60476fc4da5dc127bc00900b29c6347a",
      "transactionType": "CALL",
      "contractName": null,
      "contractAddress": "0xfa02019e4eed6a41cbbe52c5c7e6904c18633b85",
      "function": "grantManageRole(address)",
      "arguments": [
        "0x7789884c5c88AE84775F266045b96fD6Cb5C734b"
      ],
      "transaction": {
        "from": "0x7789884c5c88ae84775f266045b96fd6cb5c734b",
        "to": "0xfa02019e4eed6a41cbbe52c5c7e6904c18633b85",
        "gas": "0xa0be",
        "value": "0x0",
        "input": "0x4e77d96e0000000000000000000000007789884c5c88ae84775f266045b96fd6cb5c734b",
        "nonce": "0x141",
        "chainId": "0xaa36a7"
      },
      "additionalContracts": [],
      "isFixedGasLimit": false
    }
  ],
  "receipts": [
    {
      "status": "0x1",
      "cumulativeGasUsed": "0x105ab17",
      "logs": [
        {
          "address": "0xfa02019e4eed6a41cbbe52c5c7e6904c18633b85",
          "topics": [
            "0x2f8788117e7eff1d82e926ec794901d17c78024a50270940304540a733656f0d",
            "0xa076a07f65bcd51bcb15a0f01a65bc18f2d922acb81bcfd8af4caf5adb557091",
            "0x0000000000000000000000001de0a7584b2c916f95ec3654bd816627cdcb0782",
            "0x0000000000000000000000007789884c5c88ae84775f266045b96fd6cb5c734b"
          ],
          "data": "0x",
          "blockHash": "0xaced9b6e2e77df0657e4282530a87581e99deac85fab796aaed7769bbce8aac4",
          "blockNumber": "0x98f1a1",
          "blockTimestamp": "0x6963ebbc",
          "transactionHash": "0x2c0302c6b206d2133caaa03cb6b7b9aac493f9d0c28e4b18bdf65cb7ca210c47",
          "transactionIndex": "0x60",
          "logIndex": "0x1ef",
          "removed": false
        },
        {
          "address": "0xfa02019e4eed6a41cbbe52c5c7e6904c18633b85",
          "topics": [
            "0x75f5f7b6b03ef1c0bfc7445f5f5749b69ba4e3be14a7c4d11e48323f9e05cffb",
            "0x0000000000000000000000001de0a7584b2c916f95ec3654bd816627cdcb0782"
          ],
          "data": "0x",
          "blockHash": "0xaced9b6e2e77df0657e4282530a87581e99deac85fab796aaed7769bbce8aac4",
          "blockNumber": "0x98f1a1",
          "blockTimestamp": "0x6963ebbc",
          "transactionHash": "0x2c0302c6b206d2133caaa03cb6b7b9aac493f9d0c28e4b18bdf65cb7ca210c47",
          "transactionIndex": "0x60",
          "logIndex": "0x1f0",
          "removed": false
        }
      ],
      "logsBloom": "0x00000004000000000000000000000000000000000000800000000000000022000000000000000000000000000000004000000000000000000002000000080010000000000000000000000000000000000000000000000000000000000000400000000000000000000000000000000000000000080000400000000000000000000000000000000000000000000204000000000000000000000000000000000080000000000000000000000000000000000000000000000000001000000000000000000000010000000000000000000000000000000000000101000000000000000000000000000000000000000000000000000000000000000000000000000000",
      "type": "0x2",
      "transactionHash": "0x2c0302c6b206d2133caaa03cb6b7b9aac493f9d0c28e4b18bdf65cb7ca210c47",
      "transactionIndex": "0x60",
      "blockHash": "0xaced9b6e2e77df0657e4282530a87581e99deac85fab796aaed7769bbce8aac4",
      "blockNumber": "0x98f1a1",
      "gasUsed": "0xcf54",
      "effectiveGasPrice": "0x101479",
      "from": "0x7789884c5c88ae84775f266045b96fd6cb5c734b",
      "to": "0xfa02019e4eed6a41cbbe52c5c7e6904c18633b85",
      "contractAddress": null
    },
    {
      "status": "0x1",
      "cumulativeGasUsed": "0x1067a6b",
      "logs": [
        {
          "address": "0xfa02019e4eed6a41cbbe52c5c7e6904c18633b85",
          "topics": [
            "0x2f8788117e7eff1d82e926ec794901d17c78024a50270940304540a733656f0d",
            "0xa076a07f65bcd51bcb15a0f01a65bc18f2d922acb81bcfd8af4caf5adb557091",
            "0x0000000000000000000000009a60c99430c1bea43b0235923469cccf587d53ed",
            "0x0000000000000000000000007789884c5c88ae84775f266045b96fd6cb5c734b"
          ],
          "data": "0x",
          "blockHash": "0xaced9b6e2e77df0657e4282530a87581e99deac85fab796aaed7769bbce8aac4",
          "blockNumber": "0x98f1a1",
          "blockTimestamp": "0x6963ebbc",
          "transactionHash": "0xeecc5169cb335013cf20217e58de4b824047f386f2bc719c857c6f15db5b8e2c",
          "transactionIndex": "0x61",
          "logIndex": "0x1f1",
          "removed": false
        },
        {
          "address": "0xfa02019e4eed6a41cbbe52c5c7e6904c18633b85",
          "topics": [
            "0x75f5f7b6b03ef1c0bfc7445f5f5749b69ba4e3be14a7c4d11e48323f9e05cffb",
            "0x0000000000000000000000009a60c99430c1bea43b0235923469cccf587d53ed"
          ],
          "data": "0x",
          "blockHash": "0xaced9b6e2e77df0657e4282530a87581e99deac85fab796aaed7769bbce8aac4",
          "blockNumber": "0x98f1a1",
          "blockTimestamp": "0x6963ebbc",
          "transactionHash": "0xeecc5169cb335013cf20217e58de4b824047f386f2bc719c857c6f15db5b8e2c",
          "transactionIndex": "0x61",
          "logIndex": "0x1f2",
          "removed": false
        }
      ],
      "logsBloom": "0x00000004000000000000400000000000000000000000000000000000000022000000000000000000000000000000004000000000000000000002000000000000000000000000000000000000000000000000000000000000000000000000400000000000000000000000000000000020000000080000400000000000000000400000000000000000000000000204000000000000000000000000000000000080000000000000000000000000000000000000000000000000001000000000000000000000010000000000000000000000000000000000000101000000000000000000000000000000000000000000000000000000000000000000000000000000",
      "type": "0x2",
      "transactionHash": "0xeecc5169cb335013cf20217e58de4b824047f386f2bc719c857c6f15db5b8e2c",
      "transactionIndex": "0x61",
      "blockHash": "0xaced9b6e2e77df0657e4282530a87581e99deac85fab796aaed7769bbce8aac4",
      "blockNumber": "0x98f1a1",
      "gasUsed": "0xcf54",
      "effectiveGasPrice": "0x101479",
      "from": "0x7789884c5c88ae84775f266045b96fd6cb5c734b",
      "to": "0xfa02019e4eed6a41cbbe52c5c7e6904c18633b85",
      "contractAddress": null
    },
    {
      "status": "0x1",
      "cumulativeGasUsed": "0x106eecb",
      "logs": [
        {
          "address": "0xfa02019e4eed6a41cbbe52c5c7e6904c18633b85",
          "topics": [
            "0x75f5f7b6b03ef1c0bfc7445f5f5749b69ba4e3be14a7c4d11e48323f9e05cffb",
            "0x0000000000000000000000007789884c5c88ae84775f266045b96fd6cb5c734b"
          ],
          "data": "0x",
          "blockHash": "0xaced9b6e2e77df0657e4282530a87581e99deac85fab796aaed7769bbce8aac4",
          "blockNumber": "0x98f1a1",
          "blockTimestamp": "0x6963ebbc",
          "transactionHash": "0xcaeedf6374d9c779e8f031ecec89704d60476fc4da5dc127bc00900b29c6347a",
          "transactionIndex": "0x62",
          "logIndex": "0x1f3",
          "removed": false
        }
      ],
      "logsBloom": "0x00000000000000000000000000000000000000000000000000000000000002000000000000000000000000000000004000000000000000000002000000000000000000000000000000000000000000000000000000000000000000000000400000000000000000000000000000000000000000080000000000000000000000000000000000000000000000000200000000000000000000000000000000000080000000000000000000000000000000000000000000000000000000000000000000000000010000000000000000000000000000000000000001000000000000000000000000000000000000000000000000000000000000000000000000000000",
      "type": "0x2",
      "transactionHash": "0xcaeedf6374d9c779e8f031ecec89704d60476fc4da5dc127bc00900b29c6347a",
      "transactionIndex": "0x62",
      "blockHash": "0xaced9b6e2e77df0657e4282530a87581e99deac85fab796aaed7769bbce8aac4",
      "blockNumber": "0x98f1a1",
      "gasUsed": "0x7460",
      "effectiveGasPrice": "0x101479",
      "from": "0x7789884c5c88ae84775f266045b96fd6cb5c734b",
      "to": "0xfa02019e4eed6a41cbbe52c5c7e6904c18633b85",
      "contractAddress": null
    }
  ],
  "libraries": [],
  "pending": [],
  "returns": {},
  "timestamp": 1768156093609,
  "chain": 11155111,
  "commit": "b3accd4"
}