{
  "transactions": [
    {
      "hash": "0x0fad45fe45627089ad522d43e8d44e18fee91947a10a27efa51f2def7be9b3b2",
      "transactionType": "CALL",
      "contractName": null,
      "contractAddress": "0xed2e40049d809ffac24b66b613d0f15bcf1146d1",
      "function": "grantManageRole(address)",
      "arguments": [
        "0xE682A456ea074772f00Fa094a10C159101294e51"
      ],
      "transaction": {
        "from": "0x7789884c5c88ae84775f266045b96fd6cb5c734b",
        "to": "0xed2e40049d809ffac24b66b613d0f15bcf1146d1",
        "gas": "0x11e5e",
        "value": "0x0",
        "input": "0x4e77d96e000000000000000000000000e682a456ea074772f00fa094a10c159101294e51",
        "nonce": "0x125",
        "chainId": "0xaa36a7"
      },
      "additionalContracts": [],
      "isFixedGasLimit": false
    },
    {
      "hash": "0x028123a77dc1b544ac0e429a7b733a12845f88941003bd7bf8c8358552b7d9e1",
      "transactionType": "CALL",
      "contractName": null,
      "contractAddress": "0xed2e40049d809ffac24b66b613d0f15bcf1146d1",
      "function": "grantManageRole(address)",
      "arguments": [
        "0xD3107b0bAA0AF3eDB00d58e85276a79e1C337B47"
      ],
      "transaction": {
        "from": "0x7789884c5c88ae84775f266045b96fd6cb5c734b",
        "to": "0xed2e40049d809ffac24b66b613d0f15bcf1146d1",
        "gas": "0x11e5e",
        "value": "0x0",
        "input": "0x4e77d96e000000000000000000000000d3107b0baa0af3edb00d58e85276a79e1c337b47",
        "nonce": "0x126",
        "chainId": "0xaa36a7"
      },
      "additionalContracts": [],
      "isFixedGasLimit": false
    },
    {
      "hash": "0x63e71b045e3e92a0e7e9f5eed681bc4563ce7eabf1de4dbeda4f2e8005887983",
      "transactionType": "CALL",
      "contractName": null,
      "contractAddress": "0xed2e40049d809ffac24b66b613d0f15bcf1146d1",
      "function": "grantManageRole(address)",
      "arguments": [
        "0x7789884c5c88AE84775F266045b96fD6Cb5C734b"
      ],
      "transaction": {
        "from": "0x7789884c5c88ae84775f266045b96fd6cb5c734b",
        "to": "0xed2e40049d809ffac24b66b613d0f15bcf1146d1",
        "gas": "0xa0be",
        "value": "0x0",
        "input": "0x4e77d96e0000000000000000000000007789884c5c88ae84775f266045b96fd6cb5c734b",
        "nonce": "0x127",
        "chainId": "0xaa36a7"
      },
      "additionalContracts": [],
      "isFixedGasLimit": false
    }
  ],
  "receipts": [
    {
      "status": "0x1",
      "cumulativeGasUsed": "0x8e47e7",
      "logs": [
        {
          "address": "0xed2e40049d809ffac24b66b613d0f15bcf1146d1",
          "topics": [
            "0x2f8788117e7eff1d82e926ec794901d17c78024a50270940304540a733656f0d",
            "0xa076a07f65bcd51bcb15a0f01a65bc18f2d922acb81bcfd8af4caf5adb557091",
            "0x000000000000000000000000e682a456ea074772f00fa094a10c159101294e51",
            "0x0000000000000000000000007789884c5c88ae84775f266045b96fd6cb5c734b"
          ],
          "data": "0x",
          "blockHash": "0xc99b5ab30af840b27e4fc4b50d7af5d96766bfd5453b638e0c1e0c65773b220a",
          "blockNumber": "0x98749e",
          "blockTimestamp": "0x695d3dd4",
          "transactionHash": "0x0fad45fe45627089ad522d43e8d44e18fee91947a10a27efa51f2def7be9b3b2",
          "transactionIndex": "0x4b",
          "logIndex": "0x49",
          "removed": false
        },
        {
          "address": "0xed2e40049d809ffac24b66b613d0f15bcf1146d1",
          "topics": [
            "0x75f5f7b6b03ef1c0bfc7445f5f5749b69ba4e3be14a7c4d11e48323f9e05cffb",
            "0x000000000000000000000000e682a456ea074772f00fa094a10c159101294e51"
          ],
          "data": "0x",
          "blockHash": "0xc99b5ab30af840b27e4fc4b50d7af5d96766bfd5453b638e0c1e0c65773b220a",
          "blockNumber": "0x98749e",
          "blockTimestamp": "0x695d3dd4",
          "transactionHash": "0x0fad45fe45627089ad522d43e8d44e18fee91947a10a27efa51f2def7be9b3b2",
          "transactionIndex": "0x4b",
          "logIndex": "0x4a",
          "removed": false
        }
      ],
      "logsBloom": "0x00000004000000000000000000000000000000000000000000000000000022000000000000000000000000000000004000000000000000000000000000000000000000000000000000000000000000000080000000000000000000000000400000000000000000000000000000010000000000200000400000000000000000000000000000000000000000000204000000000000000000000000000000008080000000000000000000000000000000000000000000000000001080000000000000000000000000000000000000000000000000000000000101000000400000000000000000000000000000000000000000000000000000000000000000000000",
      "type": "0x2",
      "transactionHash": "0x0fad45fe45627089ad522d43e8d44e18fee91947a10a27efa51f2def7be9b3b2",
      "transactionIndex": "0x4b",
      "blockHash": "0xc99b5ab30af840b27e4fc4b50d7af5d96766bfd5453b638e0c1e0c65773b220a",
      "blockNumber": "0x98749e",
      "gasUsed": "0xcf54",
      "effectiveGasPrice": "0x12a49b",
      "from": "0x7789884c5c88ae84775f266045b96fd6cb5c734b",
      "to": "0xed2e40049d809ffac24b66b613d0f15bcf1146d1",
      "contractAddress": null
    },
    {
      "status": "0x1",
      "cumulativeGasUsed": "0x8f173b",
      "logs": [
        {
          "address": "0xed2e40049d809ffac24b66b613d0f15bcf1146d1",
          "topics": [
            "0x2f8788117e7eff1d82e926ec794901d17c78024a50270940304540a733656f0d",
            "0xa076a07f65bcd51bcb15a0f01a65bc18f2d922acb81bcfd8af4caf5adb557091",
            "0x000000000000000000000000d3107b0baa0af3edb00d58e85276a79e1c337b47",
            "0x0000000000000000000000007789884c5c88ae84775f266045b96fd6cb5c734b"
          ],
          "data": "0x",
          "blockHash": "0xc99b5ab30af840b27e4fc4b50d7af5d96766bfd5453b638e0c1e0c65773b220a",
          "blockNumber": "0x98749e",
          "blockTimestamp": "0x695d3dd4",
          "transactionHash": "0x028123a77dc1b544ac0e429a7b733a12845f88941003bd7bf8c8358552b7d9e1",
          "transactionIndex": "0x4c",
          "logIndex": "0x4b",
          "removed": false
        },
        {
          "address": "0xed2e40049d809ffac24b66b613d0f15bcf1146d1",
          "topics": [
            "0x75f5f7b6b03ef1c0bfc7445f5f5749b69ba4e3be14a7c4d11e48323f9e05cffb",
            "0x000000000000000000000000d3107b0baa0af3edb00d58e85276a79e1c337b47"
          ],
          "data": "0x",
          "blockHash": "0xc99b5ab30af840b27e4fc4b50d7af5d96766bfd5453b638e0c1e0c65773b220a",
          "blockNumber": "0x98749e",
          "blockTimestamp": "0x695d3dd4",
          "transactionHash": "0x028123a77dc1b544ac0e429a7b733a12845f88941003bd7bf8c8358552b7d9e1",
          "transactionIndex": "0x4c",
          "logIndex": "0x4c",
          "removed": false
        }
      ],
      "logsBloom": "0x00000004000000000000000000000000000000000000000000100000000022000000000000000000000000000000004000000000000000000000000000000000000000000000000000000000000000000000000000001000000000000000400000000000000000000000000000000000000000200000400000000000000000000000000000000000000000000204000000000000000000000000000000008080000000000000000000000000000000000000000000000000001000000000000000000000000000000000000000000000000000000000000101000000400000000000000000000000000000000000200000000000000000000000000000000000",
      "type": "0x2",
      "transactionHash": "0x028123a77dc1b544ac0e429a7b733a12845f88941003bd7bf8c8358552b7d9e1",
      "transactionIndex": "0x4c",
      "blockHash": "0xc99b5ab30af840b27e4fc4b50d7af5d96766bfd5453b638e0c1e0c65773b220a",
      "blockNumber": "0x98749e",
      "gasUsed": "0xcf54",
      "effectiveGasPrice": "0x12a49b",
      "from": "0x7789884c5c88ae84775f266045b96fd6cb5c734b",
      "to": "0xed2e40049d809ffac24b66b613d0f15bcf1146d1",
      "contractAddress": null
    },
    {
      "status": "0x1",
      "cumulativeGasUsed": "0x8f8b9b",
      "logs": [
        {
          "address": "0xed2e40049d809ffac24b66b613d0f15bcf1146d1",
          "topics": [
            "0x75f5f7b6b03ef1c0bfc7445f5f5749b69ba4e3be14a7c4d11e48323f9e05cffb",
            "0x0000000000000000000000007789884c5c88ae84775f266045b96fd6cb5c734b"
          ],
          "data": "0x",
          "blockHash": "0xc99b5ab30af840b27e4fc4b50d7af5d96766bfd5453b638e0c1e0c65773b220a",
          "blockNumber": "0x98749e",
          "blockTimestamp": "0x695d3dd4",
          "transactionHash": "0x63e71b045e3e92a0e7e9f5eed681bc4563ce7eabf1de4dbeda4f2e8005887983",
          "transactionIndex": "0x4d",
          "logIndex": "0x4d",
          "removed": false
        }
      ],
      "logsBloom": "0x00000000000000000000000000000000000000000000000000000000000002000000000000000000000000000000004000000000000000000000000000000000000000000000000000000000000000000000000000000000000000000000400000000000000000000000000000000000000000200000000000000000000000000000000000000000000000000200000000000000000000000000000000008080000000000000000000000000000000000000000000000000000000000000000000000000000000000000000000000000000000000000000001000000400000000000000000000000000000000000000000000000000000000000000000000000",
      "type": "0x2",
      "transactionHash": "0x63e71b045e3e92a0e7e9f5eed681bc4563ce7eabf1de4dbeda4f2e8005887983",
      "transactionIndex": "0x4d",
      "blockHash": "0xc99b5ab30af840b27e4fc4b50d7af5d96766bfd5453b638e0c1e0c65773b220a",
      "blockNumber": "0x98749e",
      "gasUsed": "0x7460",
      "effectiveGasPrice": "0x12a49b",
      "from": "0x7789884c5c88ae84775f266045b96fd6cb5c734b",
      "to": "0xed2e40049d809ffac24b66b613d0f15bcf1146d1",
      "contractAddress": null
    }
  ],
  "libraries": [],
  "pending": [],
  "returns": {},
  "timestamp": 1767718356919,
  "chain": 11155111,
  "commit": "5e08d9e"
}