{
  "transactions": [
    {
      "hash": "0x718c6b6f05664c530189d631da5c3423b67465d8535b15ec4fc183160f6849ba",
      "transactionType": "CALL",
      "contractName": null,
      "contractAddress": "0x4a739c8710feb7c4db9b964661b7e7d415d0ca79",
      "function": "grantManageRole(address)",
      "arguments": [
        "0xb21D9b279e9aE5F971A0c020Cb0E4bCe54059283"
      ],
      "transaction": {
        "from": "0x7789884c5c88ae84775f266045b96fd6cb5c734b",
        "to": "0x4a739c8710feb7c4db9b964661b7e7d415d0ca79",
        "gas": "0x11e5e",
        "value": "0x0",
        "input": "0x4e77d96e000000000000000000000000b21d9b279e9ae5f971a0c020cb0e4bce54059283",
        "nonce": "0x118",
        "chainId": "0xaa36a7"
      },
      "additionalContracts": [],
      "isFixedGasLimit": false
    },
    {
      "hash": "0xb4d03e6ad9bf3aed44fa2c7cf919c9a4b3e94438957761171f2c7b955974204f",
      "transactionType": "CALL",
      "contractName": null,
      "contractAddress": "0x4a739c8710feb7c4db9b964661b7e7d415d0ca79",
      "function": "grantManageRole(address)",
      "arguments": [
        "0x3cd3744C296Cc93CD981b4EFF5891aA391E36C4d"
      ],
      "transaction": {
        "from": "0x7789884c5c88ae84775f266045b96fd6cb5c734b",
        "to": "0x4a739c8710feb7c4db9b964661b7e7d415d0ca79",
        "gas": "0x11e5e",
        "value": "0x0",
        "input": "0x4e77d96e0000000000000000000000003cd3744c296cc93cd981b4eff5891aa391e36c4d",
        "nonce": "0x119",
        "chainId": "0xaa36a7"
      },
      "additionalContracts": [],
      "isFixedGasLimit": false
    },
    {
      "hash": "0x10975c03e1164f6db232473f172999cdc5f0684305028647bb507e7e2e95b15b",
      "transactionType": "CALL",
      "contractName": null,
      "contractAddress": "0x4a739c8710feb7c4db9b964661b7e7d415d0ca79",
      "function": "grantManageRole(address)",
      "arguments": [
        "0x7789884c5c88AE84775F266045b96fD6Cb5C734b"
      ],
      "transaction": {
        "from": "0x7789884c5c88ae84775f266045b96fd6cb5c734b",
        "to": "0x4a739c8710feb7c4db9b964661b7e7d415d0ca79",
        "gas": "0xa0be",
        "value": "0x0",
        "input": "0x4e77d96e0000000000000000000000007789884c5c88ae84775f266045b96fd6cb5c734b",
        "nonce": "0x11a",
        "chainId": "0xaa36a7"
      },
      "additionalContracts": [],
      "isFixedGasLimit": false
    }
  ],
  "receipts": [
    {
      "status": "0x1",
      "cumulativeGasUsed": "0x11660f5",
      "logs": [
        {
          "address": "0x4a739c8710feb7c4db9b964661b7e7d415d0ca79",
          "topics": [
            "0x2f8788117e7eff1d82e926ec794901d17c78024a50270940304540a733656f0d",
            "0xa076a07f65bcd51bcb15a0f01a65bc18f2d922acb81bcfd8af4caf5adb557091",
            "0x000000000000000000000000b21d9b279e9ae5f971a0c020cb0e4bce54059283",
            "0x0000000000000000000000007789884c5c88ae84775f266045b96fd6cb5c734b"
          ],
          "data": "0x",
          "blockHash": "0x5ac8c32eacd1ab932a40992ae228ccf1f3bb3604c7a9dbb599e54b5bac71729c",
          "blockNumber": "0x97bcb3",
          "blockTimestamp": "0x695395e0",
          "transactionHash": "0x718c6b6f05664c530189d631da5c3423b67465d8535b15ec4fc183160f6849ba",
          "transactionIndex": "0x4a",
          "logIndex": "0x8c",
          "removed": false
        },
        {
          "address": "0x4a739c8710feb7c4db9b964661b7e7d415d0ca79",
          "topics": [
            "0x75f5f7b6b03ef1c0bfc7445f5f5749b69ba4e3be14a7c4d11e48323f9e05cffb",
            "0x000000000000000000000000b21d9b279e9ae5f971a0c020cb0e4bce54059283"
          ],
          "data": "0x",
          "blockHash": "0x5ac8c32eacd1ab932a40992ae228ccf1f3bb3604c7a9dbb599e54b5bac71729c",
          "blockNumber": "0x97bcb3",
          "blockTimestamp": "0x695395e0",
          "transactionHash": "0x718c6b6f05664c530189d631da5c3423b67465d8535b15ec4fc183160f6849ba",
          "transactionIndex": "0x4a",
          "logIndex": "0x8d",
          "removed": false
        }
      ],
      "logsBloom": "0x00000004000000000000000000000000000000000020000000000000000022000000000000000000000000200000004000000000000000000000000000000000000000000000000000000000000000008000000000000000000000000000400000000000000080000000000000000000000000000000400000000000000000000000000000000000000000000204000000000000000000000000000000000080000000000000000000000000000000000040000000000000001000000000000000000000000000000000000000000000000000000000000101000000000000000000000000000000000000000000000000000000000000000000000000000000",
      "type": "0x2",
      "transactionHash": "0x718c6b6f05664c530189d631da5c3423b67465d8535b15ec4fc183160f6849ba",
      "transactionIndex": "0x4a",
      "blockHash": "0x5ac8c32eacd1ab932a40992ae228ccf1f3bb3604c7a9dbb599e54b5bac71729c",
      "blockNumber": "0x97bcb3",
      "gasUsed": "0xcf54",
      "effectiveGasPrice": "0x10c8ea",
      "from": "0x7789884c5c88ae84775f266045b96fd6cb5c734b",
      "to": "0x4a739c8710feb7c4db9b964661b7e7d415d0ca79",
      "contractAddress": null
    },
    {
      "status": "0x1",
      "cumulativeGasUsed": "0x1173049",
      "logs": [
        {
          "address": "0x4a739c8710feb7c4db9b964661b7e7d415d0ca79",
          "topics": [
            "0x2f8788117e7eff1d82e926ec794901d17c78024a50270940304540a733656f0d",
            "0xa076a07f65bcd51bcb15a0f01a65bc18f2d922acb81bcfd8af4caf5adb557091",
            "0x0000000000000000000000003cd3744c296cc93cd981b4eff5891aa391e36c4d",
            "0x0000000000000000000000007789884c5c88ae84775f266045b96fd6cb5c734b"
          ],
          "data": "0x",
          "blockHash": "0x5ac8c32eacd1ab932a40992ae228ccf1f3bb3604c7a9dbb599e54b5bac71729c",
          "blockNumber": "0x97bcb3",
          "blockTimestamp": "0x695395e0",
          "transactionHash": "0xb4d03e6ad9bf3aed44fa2c7cf919c9a4b3e94438957761171f2c7b955974204f",
          "transactionIndex": "0x4b",
          "logIndex": "0x8e",
          "removed": false
        },
        {
          "address": "0x4a739c8710feb7c4db9b964661b7e7d415d0ca79",
          "topics": [
            "0x75f5f7b6b03ef1c0bfc7445f5f5749b69ba4e3be14a7c4d11e48323f9e05cffb",
            "0x0000000000000000000000003cd3744c296cc93cd981b4eff5891aa391e36c4d"
          ],
          "data": "0x",
          "blockHash": "0x5ac8c32eacd1ab932a40992ae228ccf1f3bb3604c7a9dbb599e54b5bac71729c",
          "blockNumber": "0x97bcb3",
          "blockTimestamp": "0x695395e0",
          "transactionHash": "0xb4d03e6ad9bf3aed44fa2c7cf919c9a4b3e94438957761171f2c7b955974204f",
          "transactionIndex": "0x4b",
          "logIndex": "0x8f",
          "removed": false
        }
      ],
      "logsBloom": "0x00000004000000000000000000000002000000000020000000000000000022000000000000000000000000200000004000000000000000000000000000000000000000000000000000000000000000000000000000000000000000000000400000000000000080000000000000000000000000000000400000000000000000000000000000000000000000000204000000000000000000000000000000000080080000000000000000000000000000000000000000000000001000000000000000000000000000000000000000000000000000000000000101000000000000000000000000000000000000000000000000000008000000000000000000000000",
      "type": "0x2",
      "transactionHash": "0xb4d03e6ad9bf3aed44fa2c7cf919c9a4b3e94438957761171f2c7b955974204f",
      "transactionIndex": "0x4b",
      "blockHash": "0x5ac8c32eacd1ab932a40992ae228ccf1f3bb3604c7a9dbb599e54b5bac71729c",
      "blockNumber": "0x97bcb3",
      "gasUsed": "0xcf54",
      "effectiveGasPrice": "0x10c8ea",
      "from": "0x7789884c5c88ae84775f266045b96fd6cb5c734b",
      "to": "0x4a739c8710feb7c4db9b964661b7e7d415d0ca79",
      "contractAddress": null
    },
    {
      "status": "0x1",
      "cumulativeGasUsed": "0x117a4a9",
      "logs": [
        {
          "address": "0x4a739c8710feb7c4db9b964661b7e7d415d0ca79",
          "topics": [
            "0x75f5f7b6b03ef1c0bfc7445f5f5749b69ba4e3be14a7c4d11e48323f9e05cffb",
            "0x0000000000000000000000007789884c5c88ae84775f266045b96fd6cb5c734b"
          ],
          "data": "0x",
          "blockHash": "0x5ac8c32eacd1ab932a40992ae228ccf1f3bb3604c7a9dbb599e54b5bac71729c",
          "blockNumber": "0x97bcb3",
          "blockTimestamp": "0x695395e0",
          "transactionHash": "0x10975c03e1164f6db232473f172999cdc5f0684305028647bb507e7e2e95b15b",
          "transactionIndex": "0x4c",
          "logIndex": "0x90",
          "removed": false
        }
      ],
      "logsBloom": "0x00000000000000000000000000000000000000000020000000000000000002000000000000000000000000200000004000000000000000000000000000000000000000000000000000000000000000000000000000000000000000000000400000000000000080000000000000000000000000000000000000000000000000000000000000000000000000000200000000000000000000000000000000000080000000000000000000000000000000000000000000000000000000000000000000000000000000000000000000000000000000000000000001000000000000000000000000000000000000000000000000000000000000000000000000000000",
      "type": "0x2",
      "transactionHash": "0x10975c03e1164f6db232473f172999cdc5f0684305028647bb507e7e2e95b15b",
      "transactionIndex": "0x4c",
      "blockHash": "0x5ac8c32eacd1ab932a40992ae228ccf1f3bb3604c7a9dbb599e54b5bac71729c",
      "blockNumber": "0x97bcb3",
      "gasUsed": "0x7460",
      "effectiveGasPrice": "0x10c8ea",
      "from": "0x7789884c5c88ae84775f266045b96fd6cb5c734b",
      "to": "0x4a739c8710feb7c4db9b964661b7e7d415d0ca79",
      "contractAddress": null
    }
  ],
  "libraries": [],
  "pending": [],
  "returns": {},
  "timestamp": 1767085538136,
  "chain": 11155111,
  "commit": "81ae406"
}